:100000000C9463000C9456040C942F040C947D04FF
:100010000C947D040C947D040C948B000C94F504DA
:100020000C948B000C948B000C948B000C948B0024
:100030000C948B000C948B000C948B000C948B0014
:100040000C94E5030C948B000C94B3030C948D0377
:100050000C948B000C948B000C948B000C948B00F4
:100060000C948B000C948B000000000024002700EF
:100070002A0000000008000201000003040700003D
:1000800000000000000000000000230026002900FE
:1000900000000000250028002B00040404040404D0
:1000A0000404020202020202030303030303010227
:1000B00004081020408001020408102001020408F6
:1000C00010205205F30811241FBECFEFD8E0DEBF89
:1000D000CDBF11E0A0E0B1E0E8E4F8E102C0059096
:1000E0000D92A435B107D9F722E0A4E5B1E001C033
:1000F0001D92AE39B207E1F710E0C2E6D0E004C0CD
:100100002197FE010E94140AC136D107C9F70E9447
:1001100024060C94170C0C9400000895AF92BF9223
:10012000CF92DF92EF92FF920F931F93CF93DF93C3
:100130006C017B018B01040F151FEB015E01AE18F2
:10014000BF08C017D10759F06991D601ED91FC9114
:100150000190F081E02DC6010995892B79F7C50141
:10016000DF91CF911F910F91FF90EF90DF90CF9093
:10017000BF90AF90089581E08093AB010895FC019A
:10018000538D448D252F30E0842F90E0821B930BFC
:10019000541710F0CF96089501970895FC01918DA2
:1001A000828D981761F0A28DAE0FBF2FB11D5D96A5
:1001B0008C91928D9F5F9F73928F90E008958FEF47
:1001C0009FEF0895FC01918D828D981731F0828DFB
:1001D000E80FF11D858D90E008958FEF9FEF089552
:1001E000FC01918D228D892F90E0805C9F4F821BB6
:1001F00091098F739927089582ED91E00E94F00094
:1002000021E0892B09F420E0822F089580E090E01E
:10021000892B29F00E94FC0081110C9400000895A4
:10022000FC01A48DA80FB92FB11DA35ABF4F2C916B
:10023000848D90E001968F739927848FA689B78962
:100240002C93A089B1898C91837080648C93938D59
:10025000848D981306C00288F389E02D80818F7DFC
:1002600080830895EF92FF920F931F93CF93DF93B4
:10027000EC0181E0888F9B8D8C8D98131AC0E889E2
:10028000F989808185FF15C09FB7F894EE89FF89B1
:100290006083E889F98980818370806480839FBF4F
:1002A00081E090E0DF91CF911F910F91FF90EF904F
:1002B0000895F62E0B8D10E00F5F1F4F0F7311275F
:1002C000E02E8C8D8E110CC00FB607FCFACFE8899A
:1002D000F989808185FFF5CFCE010E941001F1CF11
:1002E000EB8DEC0FFD2FF11DE35AFF4FF0829FB70E
:1002F000F8940B8FEA89FB8980818062CFCFCF93FE
:10030000DF93EC01888D8823B9F0AA89BB89E8893D
:10031000F9898C9185FD03C0808186FD0DC00FB6E3
:1003200007FCF7CF8C9185FFF2CF808185FFEDCF61
:10033000CE010E941001E9CFDF91CF91089590E0A6
:10034000FC01EE58FF4F2491FC01E255FF4F349120
:10035000FC01E656FF4FE491EE23C9F0222339F069
:10036000233001F1A8F4213019F1223029F1F0E015
:10037000EE0FFF1FE057FF4FA591B4918FB7F89490
:10038000EC91611126C030953E233C938FBF0895B8
:100390002730A9F02830C9F0243049F78091800037
:1003A0008F7D03C0809180008F7780938000DFCFA6
:1003B00084B58F7784BDDBCF84B58F7DFBCF8091F3
:1003C000B0008F778093B000D2CF8091B0008F7D46
:1003D000F9CF3E2BDACFCF93DF9390E0FC01E255CB
:1003E000FF4F249186569F4FFC0184918823C9F0CA
:1003F00090E0880F991FFC01E859FF4FA591B49137
:10040000FC01E057FF4FC591D49161110DC09FB71A
:10041000F8948C91209582238C93888128232883BB
:100420009FBFDF91CF910895623051F49FB7F89448
:100430003C91822F809583238C93E8812E2BEFCFE4
:100440008FB7F894EC912E2B2C938FBFEACF0895A1
:100450002091A8013091A9012817390771F49091D2
:10046000A6018091A701981741F0E091A601F0E064
:10047000E35AFE4F808190E008958FEF9FEF08953B
:100480000895EF92FF920F931F93CF93DF93DC01B8
:100490005C96ED90FC905D97E114F10479F481E0B5
:1004A00090E013969C938E93129790E080E0DF91FA
:1004B000CF911F910F91FF90EF9008955196ED917C
:1004C000FC91529750968C915097982F90950FB71A
:1004D0005E962C915E97122F127021FD6095F89414
:1004E0002081112319F1282B2083E7012197F1F7AF
:1004F00028E0462F50E0308160FF1AC0382B30834F
:10050000E7012197F1F7BA0175956795215089F7B1
:10051000112381F08081892380830FBF5C968D91A8
:100520009C910197F1F781E090E0C1CF2923DCCFC6
:100530003923E5CF9081892BEFCF2091A80130910D
:10054000A9012817390771F48091A7012091A6010C
:1005500090E0805C9F4F821B910960E470E00E94F4
:10056000E509089590E080E008952091A801309178
:10057000A90128173907B9F49091A6018091A70124
:10058000981789F0E091A601F0E0E35AFE4F8081D0
:100590002091A60130E02F5F3F4F2F733327209328
:1005A000A60190E008958FEF9FEF089590E080E01E
:1005B000089542E050E060E371E082ED91E00C9438
:1005C0008E00FC0180819181009711F00C94B60A95
:1005D0000895EF92FF920F931F93CF93DF93EC0157
:1005E0007B018A0188819981009729F02A813B81CA
:1005F0002417350788F4B8016F5F7F4F0E943F0BC7
:10060000009791F0998388831B830A832C813D8115
:10061000232B11F4FC0110821D830C83B701888108
:1006200099810E94100C0CC088819981009711F06B
:100630000E94B60A198218821D821C821B821A82AD
:10064000CE01DF91CF911F910F91FF90EF90089510
:10065000CF92DF92EF92FF920F931F93CF93DF938E
:10066000EC016B017A014617570720F48D2D6A01C2
:10067000E62EF82E198218821B821A821D821C8295
:1006800050E040E062E371E0CE010E94E902009197
:10069000790210917A02C016D10640F5E016F106F3
:1006A00008F48701E0917502F0917602E00FF11FE6
:1006B000F080108260917502709176026C0D7D1D44
:1006C00061157105E9F0FB0101900020E9F7319710
:1006D000AF01461B570BCE010E94E90280917502C3
:1006E00090917602080F191FF801F082CE01DF9178
:1006F000CF911F910F91FF90EF90DF90CF900895D1
:1007000088819981009711F00E94B60A1982188297
:100710001D821C821B821A82E1CF1F920F920FB69C
:100720000F9211242F933F934F935F936F937F9377
:100730008F939F93AF93BF93EF93FF9382ED91E0DD
:100740000E941001FF91EF91BF91AF919F918F9106
:100750007F916F915F914F913F912F910F900FBEBD
:100760000F901F9018951F920F920FB60F921124A1
:100770002F938F939F93EF93FF93E091E201F0917A
:10078000E3018081E091E801F091E90182FD1BC065
:1007900090818091EB018F5F8F732091EC01821724
:1007A00041F0E091EB01F0E0EE52FE4F958F809327
:1007B000EB01FF91EF919F918F912F910F900FBEC1
:1007C0000F901F9018958081F4CF1F920F920FB653
:1007D0000F9211242F933F938F939F93AF93BF93C7
:1007E0008091A2019091A301A091A401B091A501D3
:1007F0003091A10123E0230F2D3758F50196A11D5B
:10080000B11D2093A1018093A2019093A301A09315
:10081000A401B093A50180919D0190919E01A091AA
:100820009F01B091A0010196A11DB11D80939D0172
:1008300090939E01A0939F01B093A001BF91AF91AF
:100840009F918F913F912F910F900FBE0F901F900E
:10085000189526E8230F0296A11DB11DD2CF1F9235
:100860000F920FB60F9211242F933F934F935F93E4
:100870006F937F938F939F93AF93BF93EF93FF9368
:10088000E0910201F09103010995FF91EF91BF9171
:10089000AF919F918F917F916F915F914F913F9118
:1008A0002F910F900FBE0F901F9018951F920F92CF
:1008B0000FB60F9211242F933F934F935F936F9333
:1008C0007F938F939F93AF93BF93EF93FF93E091A9
:1008D0000001F09101010995FF91EF91BF91AF9156
:1008E0009F918F917F916F915F914F913F912F9148
:1008F0000F900FBE0F901F9018951F920F920FB67A
:100900000F9211242F933F934F935F936F937F9395
:100910008F939F93AF93BF93EF93FF93E091A801C1
:10092000F091A901309749F0A685B7858585968D08
:1009300091FF14C09C918923A1F4FF91EF91BF9185
:10094000AF919F918F917F916F915F914F913F9167
:100950002F910F900FBE0F901F9018959C91892397
:1009600061F7A389B4899C918589809589238C93AB
:10097000868997890197F1F7608D718DA685B78576
:10098000558538E020E0CB010197F1F7822F90E008
:1009900095958795282F4C91452309F02068315073
:1009A00091F7868D81FD20958091A70190E00196B9
:1009B0008F7399273091A601381799F0A091A7015C
:1009C000B0E0A35ABE4F2C938093A701828D938DE4
:1009D0000197F1F7A389B4898C919589892B8C9320
:1009E000ACCF868D8160868FF1CF1F920F920FB6AC
:1009F0000F9211242F933F934F935F936F937F93A5
:100A00008F939F93AF93BF93EF93FF93809159017F
:100A100090915A01A0915B01B0915C010196A11DDA
:100A2000B11D8093590190935A01A0935B01B0933B
:100A30005C018091590190915A01A0915B01B091A4
:100A40005C01893E9340A105B105DCF0609158013D
:100A50008DE00E949F011092590110925A0110924C
:100A60005B0110925C018091580191E0892780938D
:100A70005801109254011092550110925601109293
:100A80005701FF91EF91BF91AF919F918F917F910E
:100A90006F915F914F913F912F910F900FBE0F90EB
:100AA0001F9018951092D5011092D40188EE93E012
:100AB000A0E0B0E08093D6019093D701A093D80135
:100AC000B093D90120E131E03093D3012093D201DA
:100AD00025EC30E03093DF012093DE0124EC30E0A0
:100AE0003093E1012093E00120EC30E03093E3010A
:100AF0002093E20121EC30E03093E5012093E40102
:100B000022EC30E03093E7012093E60126EC30E060
:100B10003093E9012093E8011092EB011092EC016F
:100B20001092ED011092EE0110927E0210927D0261
:100B300080937F0290938002A0938102B0938202FF
:100B400082E291E090937C0280937B021092920269
:100B500010929102109294021092930210929602B7
:100B60001092950210929802109297026091990249
:100B70006E7F6D7F609399026695617081E0682752
:100B800087E00E949F0161E087E00E94EB01E5EBB6
:100B9000F0E0E491E0938B02E1EAF0E0E491F0E030
:100BA000EE0FFF1FE057FF4F8591949190938D02B8
:100BB00080938C0260E086E00E94EB0180919902B4
:100BC00081FD04C061E086E00E949F0186E0809381
:100BD0008702E4EBF0E0E491E0938802E0EAF0E0E1
:100BE000E491F0E0EE0FFF1FEA57FF4F85919491DB
:100BF00090938A0280938902109276021092750275
:100C0000109278021092770210927A021092790272
:100C100050E040E062E371E085E792E00E94E90283
:100C20001092700210926F02109272021092710272
:100C3000109274021092730250E040E062E371E09F
:100C40008FE692E00C94E902CF93DF9300D000D0BE
:100C500000D0CDB7DEB7789484B5826084BD84B50A
:100C6000816084BD85B5826085BD85B5816085BDA7
:100C700080916E00816080936E001092810080915F
:100C800081008260809381008091810081608093E7
:100C90008100809180008160809380008091B1000C
:100CA00084608093B1008091B00081608093B00037
:100CB00080917A00846080937A0080917A008260CB
:100CC00080937A0080917A00816080937A0080918D
:100CD0007A00806880937A001092C10061E08DE014
:100CE0000E94EB0162E082E00E94EB0161E088E09B
:100CF0000E94EB018BEB90E0909301018093000147
:100D0000809169008C7F826080936900E89AF894F2
:100D10001092B0001092B1001092B20089EF80934F
:100D2000B30082E08093B00094E09093B100809390
:100D300070007894E091E201F091E3018083E0910A
:100D4000DE01F091DF011082E091E001F091E1011C
:100D50008FEC80831092EA01E091E601F091E701C7
:100D600086E08083E091E401F091E501808180617B
:100D70008083E091E401F091E501808188608083C7
:100D8000E091E401F091E501808180688083E09149
:100D9000E401F091E50180818F7D808310929602BD
:100DA0001092950210929402109293021092920265
:100DB000109291028DE991E09093980280939702AE
:100DC00090918702963108F047C02DEB30E03093C8
:100DD0009202209391022BE931E030939402209308
:100DE00093022CE231E030939602209395022091F9
:100DF000680084E0983048F031E09E3008F430E03C
:100E000081E001C0880F3A95EAF7822B8093680051
:100E10002DE630E0983050F02BE630E09E3030F098
:100E20002CE630E0963110F030E020E030938F0275
:100E300020938E02292F30E0983008F07AC081E0AC
:100E400001C0880F9A95EAF78093900280919702EB
:100E5000909198020197F1F78091950290919602F6
:100E6000892B49F1E091A801F091A90122E0EB372B
:100E7000F20709F1309739F0A389B4899C918589EB
:100E8000809589238C93809199028E7F809399021B
:100E90001092A7011092A6018BE792E09093A9010E
:100EA0008093A801E0918E02F0918F028081909151
:100EB0009002892B808340E250E063E371E082ED91
:100EC00091E00E948E000E94D9020E94D902C12C9A
:100ED00044E0D42EE12CF12C5CE9852E99249A94DF
:100EE000A92CB92C60EB262E64E0362E3BE8432E6D
:100EF000552453948BE792E00E949D021816190620
:100F00007CF58091D10181112BC08BE792E00E948A
:100F1000B5029091AA01E92FF0E0EF54FE4F8A301C
:100F2000C1F080839F5F903288F08FE18093AA01A7
:100F3000E1CF9E3040F42850310981E001C0880F94
:100F40002A95EAF781CF2E503109F7CF9093AA0165
:100F5000D1CF10821092AA0191E09093D101CACF13
:100F600080E480937C0080917A00806480937A0092
:100F700080917A0086FDFCCF909178008091790075
:100F80008927982789272091AC013091AD01A901CB
:100F90004D5F5F4F4817590734F0235031098217CE
:100FA00093070CF0C1C0E1E0E093AE019093AD0176
:100FB0008093AC018091D101882309F4F8C0E1EB62
:100FC000F1E001900020E9F7AF01425B514061EB95
:100FD00071E085E792E00E94E902809179029091A8
:100FE0007A02892B71F000917502109176026FE5FB
:100FF00070E0C8010E94050CAC01401B510B892B0D
:1010000011F44FEF5FEF70E060E0CE0101960E94B7
:10101000280380916F0290917002009709F489C0B3
:1010200069817A816115710509F481C0409171026D
:10103000509172022D813E814217530708F477C008
:101040000E94100C8D819E81909374028093730294
:101050001E821D82CE0101960E94E10260907902FB
:1010600070907A026114710471F000917502109110
:1010700076026FE570E0C8010E94050CBC01601BA0
:10108000710B892B11F46FEF7FEF6F5F7F4FA3011F
:10109000CE0101960E94280389819A81009709F464
:1010A0005FC00E9417098B017093B0016093AF017C
:1010B000CE0101960E94E1020115110509F054C00C
:1010C00080E49FE190930501809304011092D10187
:1010D0008091AB018823D9F08091040190910501A2
:1010E0008230910538F0880F991F880F991F059756
:1010F0000197F1F761E088E00E949F01C20101972A
:10110000F1F760E088E00E949F011092AB0180E05F
:1011100090E0892B09F4EECE0E94FC00882309F4AC
:10112000E5CE0E940000E2CE1092AE0143CF0E94B5
:10113000B60A89819A819093700280936F028B81A5
:101140009C8190937202809371028D819E81909315
:101150007402809373021A8219821C821B8278CFD8
:1011600060E070E0CB019FCF04361105D9F0012E6D
:10117000000C220B330BA9019801245631094109B7
:101180005109A0E9BAE10E947209A50194010E94E7
:10119000530920553B4F4F4F5F4F3093050120932C
:1011A000040194CF30920501209204018FCF8091E9
:1011B000AE01882309F48CCFA091AC01B091AD01B0
:1011C00020E93AE10E94F909A70196010E9453091A
:1011D00020553B4F4F4F5F4F309305012093040143
:1011E0001092AE0175CF8FE692E00E94E10285E792
:1011F00092E00E94E10282E291E090937C0280936F
:101200007B028091A8019091A9018B57924071F4C3
:10121000E0918E02F0918F029081809190028095F2
:10122000892380831092A9011092A80108951F9329
:10123000FC0199278827BC01E89411911032E9F349
:10124000193010F01E30C8F31B3251F01D3249F432
:10125000689406C00E943E09610F711D811D911D99
:10126000119110531A30B0F33EF49095809570951B
:1012700061957F4F8F4F9F4F1F910895592F482F92
:10128000372F262F660F771F881F991F660F771F2E
:10129000881F991F620F731F841F951F660F771F8A
:1012A000881F991F0895052E97FB1EF400940E9435
:1012B0006A0957FD07D00E94B40907FC03D04EF419
:1012C0000C946A0950954095309521953F4F4F4FAA
:1012D0005F4F089590958095709561957F4F8F4FE2
:1012E0009F4F08950E94D609A59F900DB49F900D21
:1012F000A49F800D911D112408952F923F924F922B
:101300005F926F927F928F929F92AF92BF92CF9295
:10131000DF92EF92FF920F931F93CF93DF93CDB79E
:10132000DEB7CA1BDB0B0FB6F894DEBF0FBECDBF16
:1013300009942A88398848885F846E847D848C84E7
:101340009B84AA84B984C884DF80EE80FD800C81F0
:101350001B81AA81B981CE0FD11D0FB6F894DEBFD3
:101360000FBECDBFED010895A1E21A2EAA1BBB1B33
:10137000FD010DC0AA1FBB1FEE1FFF1FA217B30761
:10138000E407F50720F0A21BB30BE40BF50B661F77
:10139000771F881F991F1A9469F76095709580953B
:1013A00090959B01AC01BD01CF010895A29FB001B2
:1013B000B39FC001A39F700D811D1124911DB29F89
:1013C000700D811D1124911D089597FB072E16F4B1
:1013D000009407D077FD09D00E94000A07FC05D0D1
:1013E0003EF4909581959F4F0895709561957F4F3C
:1013F00008950E94D609B7FF0895821B930B0895A4
:10140000AA1BBB1B51E107C0AA1FBB1FA617B7072A
:1014100010F0A61BB70B881F991F5A95A9F7809546
:101420009095BC01CD010895EE0FFF1F0590F4913A
:10143000E02D09940F931F93CF93DF938230910592
:1014400010F482E090E0E0919C02F0919D0230E087
:1014500020E0B0E0A0E0309799F42115310509F4BF
:101460004AC0281B390B24303105D8F58A819B816D
:101470006115710589F1FB0193838283FE0111C01F
:10148000408151810281138148175907E0F04817C4
:10149000590799F4109761F012960C9312971396CE
:1014A0001C933296CF01DF91CF911F910F91089538
:1014B00000939C0210939D02F4CF2115310551F049
:1014C0004217530738F0A901DB019A01BD01DF0182
:1014D000F801C1CFEF01F9CF90939D0280939C0258
:1014E000CDCFFE01E20FF31F81939193225031097A
:1014F00039832883D7CF20919A0230919B02232BE6
:1015000041F4209108013091090130939B0220930E
:101510009A0220910601309107012115310541F40D
:101520002DB73EB740910A0150910B01241B350B9A
:10153000E0919A02F0919B02E217F307A0F42E1BB0
:101540003F0B2817390778F0AC014E5F5F4F241727
:10155000350748F04E0F5F1F50939B0240939A024D
:10156000819391939FCFF0E0E0E09CCFCF93DF9306
:101570000097E9F0FC01329713821282A0919C023D
:10158000B0919D02ED0130E020E01097A1F42081A0
:101590003181820F931F20919A0230919B0228176C
:1015A000390709F061C0F0939B02E0939A02DF9142
:1015B000CF910895EA01CE17DF07E8F54A815B81F4
:1015C0009E0141155105B1F7E901FB83EA83499179
:1015D0005991C40FD51FEC17FD0761F480819181EB
:1015E0000296840F951FE9019983888382819381F4
:1015F0009B838A83F0E0E0E012968D919C91139793
:101600000097B9F52D913C911197CD010296820F6B
:10161000931F20919A0230919B022817390739F6BF
:10162000309751F510929D0210929C02B0939B024C
:10163000A0939A02BCCFD383C28340815181840F8F
:10164000951FC817D90761F44E5F5F4F8881998154
:10165000480F591F518340838A819B8193838283E2
:101660002115310509F0B0CFF0939D02E0939C0263
:101670009ECFFD01DC01C0CF13821282D7CFB0E034
:10168000A0E0E5E4FBE00C947F098C01009751F4A5
:10169000CB010E941A0A8C01C801CDB7DEB7E0E188
:1016A0000C949B09FC01E60FF71F9C0122503109A5
:1016B000E217F30708F49DC0D901CD91DC91119791
:1016C000C617D70798F0C530D10530F3CE0104977F
:1016D0008617970708F3C61BD70B2297C193D193A0
:1016E0006D937C93CF010E94B60AD6CF5B01AC1AF2
:1016F000BD0A4C018C0E9D1EA0919C02B0919D02D2
:10170000512C412CF12CE12C109731F580919A024B
:1017100090919B028815990509F05CC04616570602
:1017200008F058C08091060190910701009741F49C
:101730008DB79EB740910A0150910B01841B950B08
:10174000E817F90708F055C0F0939B02E0939A025E
:10175000F90171836083A0CF8D919C9111971296AE
:101760006C90129713967C901397A815B90559F5AC
:101770006C0142E0C40ED11CCA14DB0420F1AC01A0
:101780004A195B09DA011296159780F0628273821A
:1017900051834083D9016D937C93E114F10471F07E
:1017A000D7011396FC93EE93129776CF22968C0F67
:1017B0009D1FF90191838083F301EFCFF0939D0288
:1017C000E0939C0269CF4816590608F42C017D016C
:1017D000D3019ACFCB010E941A0A7C01009749F0ED
:1017E000AE01B8010E94FC0BC8010E94B60A870135
:1017F00053CF10E000E050CFFB01DC0102C00190AC
:101800000D9241505040D8F70895FC018191861700
:1018100021F08823D9F7992708953197CF010895AA
:10182000FB01DC0101900D920020E1F7089510E02A
:10183000C2E6D0E004C0FE010E94140A2196C3361D
:08184000D107C9F7F894FFCFAE
:1018480027022702B00400009E028000000000006A
:1018580032018E00BF007F01F000CE00E2000000E0
:10186800000041028E00D60240029D02B502280205
:101878000D0A00486920757365722C2065766572BB
:10188800797468696E6720636F6E6E6563746564EA
:041898002E2E2E00C2
:00000001FF
