:100000000C945D000C9440030C9419030C9485002F
:100010000C9485000C9485000C9485000C94670367
:100020000C9485000C9485000C9485000C9485003C
:100030000C9485000C9485000C9485000C9485002C
:100040000C94CF020C9485000C949D020C947702C2
:100050000C9485000C9485000C9485000C9485000C
:100060000C9485000C9485000000000024002700FB
:100070002A0000000000250028002B0004040404CE
:100080000404040402020202020203030303030342
:10009000010204081020408001020408102001021F
:1000A00004081020000000080002010000030407FB
:1000B0000000000000000000B20411241FBECFEFBA
:1000C000D8E0DEBFCDBF11E0A0E0B1E0E2E1FAE0B0
:1000D00002C005900D92AA31B107D9F721E0AAE13B
:1000E000B1E001C01D92AA3CB207E1F710E0CDE5F6
:1000F000D0E004C02197FE010E940105CC35D10754
:10010000C9F70E94F1030C9407050C940000AF920C
:10011000BF92CF92DF92EF92FF920F931F93CF93F4
:10012000DF936C017B018B01040F151FEB015E0156
:10013000AE18BF08C017D10759F06991D601ED91EB
:10014000FC910190F081E02DC6010995892B79F78A
:10015000C501DF91CF911F910F91FF90EF90DF903C
:10016000CF90BF90AF90089580911B0190911C019A
:10017000A0911D01B0911E010196A11DB11D80939A
:100180001B0190931C01A0931D01B0931E0181E0FF
:1001900080932C010895FC01538D448D252F30E070
:1001A000842F90E0821B930B541710F0CF96089584
:1001B00001970895FC01918D828D981761F0A28DB1
:1001C000AE0FBF2FB11D5D968C91928D9F5F9F7377
:1001D000928F90E008958FEF9FEF0895FC01918D2D
:1001E000828D981731F0828DE80FF11D858D90E09A
:1001F00008958FEF9FEF0895FC01918D228D892F37
:1002000090E0805C9F4F821B91098F73992708951E
:100210008DE291E00E94FC0021E0892B09F420E0AE
:10022000822F089580E090E0892B29F00E94080138
:1002300081110C9400000895FC01A48DA80FB92F22
:10024000B11DA35ABF4F2C91848D90E001968F73FE
:100250009927848FA689B7892C93A089B1898C911D
:10026000837080648C93938D848D981306C002886C
:10027000F389E02D80818F7D80830895EF92FF9236
:100280000F931F93CF93DF93EC0181E0888F9B8DB9
:100290008C8D98131AC0E889F989808185FF15C073
:1002A0009FB7F894EE89FF896083E889F989808196
:1002B0008370806480839FBF81E090E0DF91CF9165
:1002C0001F910F91FF90EF900895F62E0B8D10E087
:1002D0000F5F1F4F0F731127E02E8C8D8E110CC0F6
:1002E0000FB607FCFACFE889F989808185FFF5CF41
:1002F000CE010E941C01F1CFEB8DEC0FFD2FF11D03
:10030000E35AFF4FF0829FB7F8940B8FEA89FB897D
:1003100080818062CFCFCF93DF93EC01888D8823DB
:10032000B9F0AA89BB89E889F9898C9185FD03C058
:10033000808186FD0DC00FB607FCF7CF8C9185FF3D
:10034000F2CF808185FFEDCFCE010E941C01E9CF65
:10035000DF91CF91089590E0FC01EC55FF4F24917F
:10036000FC01E057FF4F3491FC01E458FF4FE4914A
:10037000EE23C9F0222339F0233001F1A8F4213013
:1003800019F1223029F1F0E0EE0FFF1FEE58FF4F78
:10039000A591B4918FB7F894EC91611126C0309576
:1003A0003E233C938FBF08952730A9F02830C9F031
:1003B000243049F7809180008F7D03C080918000B8
:1003C0008F7780938000DFCF84B58F7784BDDBCFBC
:1003D00084B58F7DFBCF8091B0008F778093B00084
:1003E000D2CF8091B0008F7DF9CF3E2BDACFCF9363
:1003F000DF9390E0FC01E057FF4F249184589F4F1A
:10040000FC0184918823D1F090E0880F991FFC01B2
:10041000E859FF4FA591B491FC01EE58FF4FC591EB
:10042000D491623071F49FB7F8943C91822F8095FB
:1004300083238C93E8812E2B28839FBFDF91CF915C
:1004400008958FB7F894EC912E2B2C938FBFF6CF95
:1004500008958F929F92AF92BF920F931F93CF9365
:10046000DF93CDB7DEB7A1970FB6F894DEBF0FBE0E
:10047000CDBF19A2423008F44AE08E010F5D1F4F34
:10048000842E912CB12CA12CA50194010E94DF0493
:10049000E62FB901CA01EA3044F5E05DD801EE93D8
:1004A0008D01232B242B252B79F790E080E01097EA
:1004B00069F0FD0101900020E9F73197AF014A1B77
:1004C0005B0BBD018DE291E00E948700A1960FB603
:1004D000F894DEBF0FBECDBFDF91CF911F910F917A
:1004E000BF90AF909F908F900895E95CD7CF1F92F7
:1004F0000F920FB60F9211242F933F934F935F9358
:100500006F937F938F939F93AF93BF93EF93FF93DB
:100510008DE291E00E941C01FF91EF91BF91AF919C
:100520009F918F917F916F915F914F913F912F910B
:100530000F900FBE0F901F9018951F920F920FB63D
:100540000F9211242F938F939F93EF93FF93E0913A
:100550003D01F0913E018081E0914301F091440121
:1005600082FD1BC09081809146018F5F8F73209127
:100570004701821741F0E0914601F0E0E35DFE4F54
:10058000958F80934601FF91EF919F918F912F91CD
:100590000F900FBE0F901F9018958081F4CF1F927F
:1005A0000F920FB60F9211242F933F938F939F9327
:1005B000AF93BF938091280190912901A0912A01C6
:1005C000B0912B013091270123E0230F2D3758F5EF
:1005D0000196A11DB11D20932701809328019093BE
:1005E0002901A0932A01B0932B01809123019091BE
:1005F0002401A0912501B09126010196A11DB11DF4
:100600008093230190932401A0932501B0932601A8
:10061000BF91AF919F918F913F912F910F900FBEFE
:100620000F901F90189526E8230F0296A11DB11D6B
:10063000D2CF1F920F920FB60F9211242F933F9398
:100640004F935F936F937F938F939F93AF93BF93DA
:10065000EF93FF93E0910201F09103010995FF915F
:10066000EF91BF91AF919F918F917F916F915F912A
:100670004F913F912F910F900FBE0F901F901895A3
:100680001F920F920FB60F9211242F933F934F9307
:100690005F936F937F938F939F93AF93BF93EF93EA
:1006A000FF93E0910001F09101010995FF91EF9115
:1006B000BF91AF919F918F917F916F915F914F917A
:1006C0003F912F910F900FBE0F901F9018951F9282
:1006D0000F920FB60F921124CF92DF92EF92FF92FA
:1006E0002F933F934F935F936F937F938F939F933A
:1006F000AF93BF93EF93FF9380911F0190912001DF
:10070000A0912101B09122010196A11DB11D8093FC
:100710001F0190932001A0932101B09322018091A9
:100720001F0190912001A0912101B0912201893EE9
:100730009340A105B1050CF43FC0C0901B01D090BF
:100740001C01E0901D01F0901E014AE0C701B601B6
:10075000F7FE0DC06DE28DE291E00E943E0166273A
:100760007727CB016C197D098E099F094AE00E9409
:10077000290242E050E066E171E08DE291E00E94E2
:10078000870060911A018DE00E94AB0110921F0159
:1007900010922001109221011092220180911A01E1
:1007A00091E0892780931A0110921B0110921C017D
:1007B00010921D0110921E01FF91EF91BF91AF9118
:1007C0009F918F917F916F915F914F913F912F9169
:1007D000FF90EF90DF90CF900F900FBE0F901F9083
:1007E0001895789484B5826084BD84B5816084BD99
:1007F00085B5826085BD85B5816085BD80916E00BF
:10080000816080936E0010928100809181008260EF
:10081000809381008091810081608093810080912C
:1008200080008160809380008091B100846080931B
:10083000B1008091B00081608093B00080917A0017
:10084000846080937A0080917A00826080937A003D
:1008500080917A00816080937A0080917A0080682C
:1008600080937A001092C10061E08DE00E94F70150
:1008700062E082E00E94F70161E088E00E94F701F7
:1008800084EB90E0909301018093000180916900D6
:100890008C7F826080936900E89AF8941092B0008F
:1008A0001092B1001092B20089EF8093B30082E001
:1008B0008093B00094E09093B1008093700078949E
:1008C000E0913D01F0913E018083E0913901F0918A
:1008D0003A011082E0913B01F0913C018FEC808362
:1008E00010924501E0914101F091420186E0808340
:1008F000E0913F01F0914001808180618083E0912F
:100900003F01F0914001808188608083E0913F0148
:10091000F0914001808180688083E0913F01F091F7
:10092000400180818F7D808307E111E4C0E0D0E049
:1009300080912C01882369F061E088E00E94AB017E
:10094000C8010197F1F760E088E00E94AB011092C6
:100950002C01209769F30E940801882349F30E9423
:100960000000E6CFEDE2F1E01382128288EE93E020
:10097000A0E0B0E084839583A683B78388E091E00C
:100980009183808385EC90E09587848784EC90E068
:100990009787868780EC90E0918B808B81EC90E04C
:1009A000938B828B82EC90E0958B848B86EC90E02D
:1009B000978B868B118E128E138E148E0895A1E262
:1009C0001A2EAA1BBB1BFD010DC0AA1FBB1FEE1FC9
:1009D000FF1FA217B307E407F50720F0A21BB30B14
:1009E000E40BF50B661F771F881F991F1A9469F790
:1009F00060957095809590959B01AC01BD01CF01EC
:100A00000895EE0FFF1F0590F491E02D0994F894DE
:020A1000FFCF16
:100A120028022802000000003E018700CB008B0163
:0A0A2200FC00DA00EE000D0A0000EF
:107E0000112484B714BE81FFF0D085E080938100F7
:107E100082E08093C00088E18093C10086E0809377
:107E2000C20080E18093C4008EE0C9D0259A86E02C
:107E300020E33CEF91E0309385002093840096BBD3
:107E4000B09BFECF1D9AA8958150A9F7CC24DD24C4
:107E500088248394B5E0AB2EA1E19A2EF3E0BF2EE7
:107E6000A2D0813461F49FD0082FAFD0023811F036
:107E7000013811F484E001C083E08DD089C08234E0
:107E800011F484E103C0853419F485E0A6D080C0E4
:107E9000853579F488D0E82EFF2485D0082F10E0AE
:107EA000102F00270E291F29000F111F8ED06801E7
:107EB0006FC0863521F484E090D080E0DECF843638
:107EC00009F040C070D06FD0082F6DD080E0C81688
:107ED00080E7D80618F4F601B7BEE895C0E0D1E017
:107EE00062D089930C17E1F7F0E0CF16F0E7DF06D8
:107EF00018F0F601B7BEE89568D007B600FCFDCFD4
:107F0000A601A0E0B1E02C9130E011968C91119780
:107F100090E0982F8827822B932B1296FA010C0160
:107F200087BEE89511244E5F5F4FF1E0A038BF0790
:107F300051F7F601A7BEE89507B600FCFDCF97BE46
:107F4000E89526C08437B1F42ED02DD0F82E2BD052
:107F50003CD0F601EF2C8F010F5F1F4F84911BD097
:107F6000EA94F801C1F70894C11CD11CFA94CF0C13
:107F7000D11C0EC0853739F428D08EE10CD085E9AC
:107F80000AD08FE07ACF813511F488E018D01DD067
:107F900080E101D065CF982F8091C00085FFFCCF94
:107FA0009093C60008958091C00087FFFCCF809118
:107FB000C00084FD01C0A8958091C6000895E0E648
:107FC000F0E098E1908380830895EDDF803219F02E
:107FD00088E0F5DFFFCF84E1DECF1F93182FE3DFCA
:107FE0001150E9F7F2DF1F91089580E0E8DFEE27F6
:047FF000FF270994CA
:027FFE00040479
:0400000300007E007B
:00000001FF